{
  "_format": "hh-sol-artifact-1",
  "contractName": "ShapesCalculator",
  "sourceName": "contracts/ShapesCalculator.sol",
  "abi": [
    {
      "inputs": [
        {
          "internalType": "uint256",
          "name": "lengthOfRect",
          "type": "uint256"
        },
        {
          "internalType": "uint256",
          "name": "breadthOfRect",
          "type": "uint256"
        }
      ],
      "name": "calcAreaOfRectangle",
      "outputs": [
        {
          "internalType": "uint256",
          "name": "",
          "type": "uint256"
        }
      ],
      "stateMutability": "pure",
      "type": "function"
    },
    {
      "inputs": [
        {
          "internalType": "uint256",
          "name": "sq",
          "type": "uint256"
        }
      ],
      "name": "calcAreaOfSquare",
      "outputs": [
        {
          "internalType": "uint256",
          "name": "",
          "type": "uint256"
        }
      ],
      "stateMutability": "pure",
      "type": "function"
    },
    {
      "inputs": [
        {
          "internalType": "uint256",
          "name": "triangleHeight",
          "type": "uint256"
        },
        {
          "internalType": "uint256",
          "name": "triaBreadth",
          "type": "uint256"
        }
      ],
      "name": "calcAreaOfTriangle",
      "outputs": [
        {
          "internalType": "uint256",
          "name": "",
          "type": "uint256"
        }
      ],
      "stateMutability": "pure",
      "type": "function"
    }
  ],
  "bytecode": "0x608060405234801561001057600080fd5b5061030e806100206000396000f3fe608060405234801561001057600080fd5b50600436106100415760003560e01c8063145bb58814610046578063178b59c714610076578063733a0b66146100a6575b600080fd5b610060600480360381019061005b9190610170565b6100d6565b60405161006d91906101ac565b60405180910390f35b610090600480360381019061008b91906101c7565b6100f0565b60405161009d91906101ac565b60405180910390f35b6100c060048036038101906100bb91906101c7565b61010b565b6040516100cd91906101ac565b60405180910390f35b60008082836100e59190610236565b905080915050919050565b60008082846100ff9190610236565b90508091505092915050565b600080828461011a9190610236565b905060028161012991906102a7565b90508091505092915050565b600080fd5b6000819050919050565b61014d8161013a565b811461015857600080fd5b50565b60008135905061016a81610144565b92915050565b60006020828403121561018657610185610135565b5b60006101948482850161015b565b91505092915050565b6101a68161013a565b82525050565b60006020820190506101c1600083018461019d565b92915050565b600080604083850312156101de576101dd610135565b5b60006101ec8582860161015b565b92505060206101fd8582860161015b565b9150509250929050565b7f4e487b7100000000000000000000000000000000000000000000000000000000600052601160045260246000fd5b60006102418261013a565b915061024c8361013a565b925082820261025a8161013a565b9150828204841483151761027157610270610207565b5b5092915050565b7f4e487b7100000000000000000000000000000000000000000000000000000000600052601260045260246000fd5b60006102b28261013a565b91506102bd8361013a565b9250826102cd576102cc610278565b5b82820490509291505056fea2646970667358221220e2b1a1a204ad9ca0bdd19e5fa77421aec0d723c7116d6fa1721d977e874eb50764736f6c63430008180033",
  "linkReferences": {},
  "deployedLinkReferences": {}
}